{
  "contractName": "DappWork",
  "abi": [
    {
      "constant": true,
      "inputs": [
        {
          "name": "",
          "type": "uint256"
        }
      ],
      "name": "ordersList",
      "outputs": [
        {
          "name": "id",
          "type": "uint256"
        },
        {
          "name": "title",
          "type": "bytes32"
        },
        {
          "name": "owner",
          "type": "address"
        },
        {
          "name": "ownerContactEmail",
          "type": "bytes32"
        },
        {
          "name": "ownerContactAdditional",
          "type": "bytes32"
        },
        {
          "name": "freelancer",
          "type": "address"
        },
        {
          "name": "freelancerContactEmail",
          "type": "bytes32"
        },
        {
          "name": "budget",
          "type": "uint256"
        },
        {
          "name": "ipfsTextDescription",
          "type": "string"
        },
        {
          "name": "ipfsDetailsFile",
          "type": "string"
        },
        {
          "name": "ownerLock",
          "type": "bool"
        },
        {
          "name": "freelancerLock",
          "type": "bool"
        }
      ],
      "payable": false,
      "stateMutability": "view",
      "type": "function"
    },
    {
      "constant": true,
      "inputs": [],
      "name": "minBudget",
      "outputs": [
        {
          "name": "",
          "type": "uint256"
        }
      ],
      "payable": false,
      "stateMutability": "view",
      "type": "function"
    },
    {
      "constant": false,
      "inputs": [],
      "name": "unpause",
      "outputs": [],
      "payable": false,
      "stateMutability": "nonpayable",
      "type": "function"
    },
    {
      "constant": true,
      "inputs": [],
      "name": "lastOrderId",
      "outputs": [
        {
          "name": "",
          "type": "uint256"
        }
      ],
      "payable": false,
      "stateMutability": "view",
      "type": "function"
    },
    {
      "constant": true,
      "inputs": [],
      "name": "paused",
      "outputs": [
        {
          "name": "",
          "type": "bool"
        }
      ],
      "payable": false,
      "stateMutability": "view",
      "type": "function"
    },
    {
      "constant": false,
      "inputs": [],
      "name": "renounceOwnership",
      "outputs": [],
      "payable": false,
      "stateMutability": "nonpayable",
      "type": "function"
    },
    {
      "constant": false,
      "inputs": [],
      "name": "pause",
      "outputs": [],
      "payable": false,
      "stateMutability": "nonpayable",
      "type": "function"
    },
    {
      "constant": true,
      "inputs": [],
      "name": "owner",
      "outputs": [
        {
          "name": "",
          "type": "address"
        }
      ],
      "payable": false,
      "stateMutability": "view",
      "type": "function"
    },
    {
      "constant": true,
      "inputs": [],
      "name": "contractProfit",
      "outputs": [
        {
          "name": "",
          "type": "uint256"
        }
      ],
      "payable": false,
      "stateMutability": "view",
      "type": "function"
    },
    {
      "constant": true,
      "inputs": [
        {
          "name": "",
          "type": "address"
        }
      ],
      "name": "moders",
      "outputs": [
        {
          "name": "",
          "type": "bool"
        }
      ],
      "payable": false,
      "stateMutability": "view",
      "type": "function"
    },
    {
      "constant": true,
      "inputs": [],
      "name": "houseEdge",
      "outputs": [
        {
          "name": "",
          "type": "uint256"
        }
      ],
      "payable": false,
      "stateMutability": "view",
      "type": "function"
    },
    {
      "constant": false,
      "inputs": [
        {
          "name": "_newOwner",
          "type": "address"
        }
      ],
      "name": "transferOwnership",
      "outputs": [],
      "payable": false,
      "stateMutability": "nonpayable",
      "type": "function"
    },
    {
      "inputs": [
        {
          "name": "_houseEdge",
          "type": "uint256"
        }
      ],
      "payable": false,
      "stateMutability": "nonpayable",
      "type": "constructor"
    },
    {
      "payable": true,
      "stateMutability": "payable",
      "type": "fallback"
    },
    {
      "anonymous": false,
      "inputs": [
        {
          "indexed": true,
          "name": "moder",
          "type": "address"
        }
      ],
      "name": "LogModerAdded",
      "type": "event"
    },
    {
      "anonymous": false,
      "inputs": [
        {
          "indexed": true,
          "name": "moder",
          "type": "address"
        }
      ],
      "name": "LogModerRemoved",
      "type": "event"
    },
    {
      "anonymous": false,
      "inputs": [
        {
          "indexed": true,
          "name": "id",
          "type": "uint256"
        },
        {
          "indexed": false,
          "name": "title",
          "type": "bytes32"
        },
        {
          "indexed": true,
          "name": "owner",
          "type": "address"
        },
        {
          "indexed": true,
          "name": "ownerEmail",
          "type": "bytes32"
        },
        {
          "indexed": false,
          "name": "budget",
          "type": "uint256"
        },
        {
          "indexed": false,
          "name": "ipfsTextDescription",
          "type": "string"
        },
        {
          "indexed": false,
          "name": "ipfsDetailsFile",
          "type": "string"
        }
      ],
      "name": "LogOrderCreated",
      "type": "event"
    },
    {
      "anonymous": false,
      "inputs": [
        {
          "indexed": true,
          "name": "id",
          "type": "uint256"
        },
        {
          "indexed": true,
          "name": "modifiedBy",
          "type": "address"
        },
        {
          "indexed": false,
          "name": "title",
          "type": "bytes32"
        },
        {
          "indexed": true,
          "name": "ownerEmail",
          "type": "bytes32"
        },
        {
          "indexed": false,
          "name": "ownerAdditionalContact",
          "type": "bytes32"
        },
        {
          "indexed": false,
          "name": "budget",
          "type": "uint256"
        },
        {
          "indexed": false,
          "name": "ipfsTextDescription",
          "type": "string"
        },
        {
          "indexed": false,
          "name": "ipfsDetailsFile",
          "type": "string"
        },
        {
          "indexed": false,
          "name": "ownerLock",
          "type": "bool"
        },
        {
          "indexed": false,
          "name": "freelancerLock",
          "type": "bool"
        }
      ],
      "name": "LogOrderModified",
      "type": "event"
    },
    {
      "anonymous": false,
      "inputs": [
        {
          "indexed": true,
          "name": "id",
          "type": "uint256"
        }
      ],
      "name": "LogOrderUnlockedByOwner",
      "type": "event"
    },
    {
      "anonymous": false,
      "inputs": [
        {
          "indexed": true,
          "name": "id",
          "type": "uint256"
        }
      ],
      "name": "LogOrderUnlockedByFreelancer",
      "type": "event"
    },
    {
      "anonymous": false,
      "inputs": [
        {
          "indexed": true,
          "name": "id",
          "type": "uint256"
        }
      ],
      "name": "LogOrderCompleted",
      "type": "event"
    },
    {
      "anonymous": false,
      "inputs": [
        {
          "indexed": true,
          "name": "id",
          "type": "uint256"
        },
        {
          "indexed": true,
          "name": "removedBy",
          "type": "address"
        }
      ],
      "name": "LogOrderRemoved",
      "type": "event"
    },
    {
      "anonymous": false,
      "inputs": [
        {
          "indexed": true,
          "name": "id",
          "type": "uint256"
        },
        {
          "indexed": true,
          "name": "freelancer",
          "type": "address"
        },
        {
          "indexed": true,
          "name": "freelanerEmail",
          "type": "bytes32"
        }
      ],
      "name": "LogOrderFreelancerAdded",
      "type": "event"
    },
    {
      "anonymous": false,
      "inputs": [],
      "name": "Pause",
      "type": "event"
    },
    {
      "anonymous": false,
      "inputs": [],
      "name": "Unpause",
      "type": "event"
    },
    {
      "anonymous": false,
      "inputs": [
        {
          "indexed": true,
          "name": "previousOwner",
          "type": "address"
        }
      ],
      "name": "OwnershipRenounced",
      "type": "event"
    },
    {
      "anonymous": false,
      "inputs": [
        {
          "indexed": true,
          "name": "previousOwner",
          "type": "address"
        },
        {
          "indexed": true,
          "name": "newOwner",
          "type": "address"
        }
      ],
      "name": "OwnershipTransferred",
      "type": "event"
    },
    {
      "constant": false,
      "inputs": [
        {
          "name": "amount",
          "type": "uint256"
        }
      ],
      "name": "withdrawContractProfit",
      "outputs": [],
      "payable": false,
      "stateMutability": "nonpayable",
      "type": "function"
    },
    {
      "constant": false,
      "inputs": [
        {
          "name": "_moder",
          "type": "address"
        }
      ],
      "name": "addModer",
      "outputs": [],
      "payable": false,
      "stateMutability": "nonpayable",
      "type": "function"
    },
    {
      "constant": false,
      "inputs": [
        {
          "name": "_moder",
          "type": "address"
        }
      ],
      "name": "removeModer",
      "outputs": [],
      "payable": false,
      "stateMutability": "nonpayable",
      "type": "function"
    },
    {
      "constant": true,
      "inputs": [
        {
          "name": "_id",
          "type": "uint256"
        }
      ],
      "name": "getOrderById",
      "outputs": [
        {
          "name": "title",
          "type": "bytes32"
        },
        {
          "name": "owner",
          "type": "address"
        },
        {
          "name": "ownerContactEmail",
          "type": "bytes32"
        },
        {
          "name": "ownerContactAdditional",
          "type": "bytes32"
        },
        {
          "name": "freelancer",
          "type": "address"
        },
        {
          "name": "freelancerContactEmail",
          "type": "bytes32"
        },
        {
          "name": "budget",
          "type": "uint256"
        },
        {
          "name": "ipfsTextDescription",
          "type": "string"
        },
        {
          "name": "ipfsDetailsFile",
          "type": "string"
        },
        {
          "name": "lock",
          "type": "bool"
        }
      ],
      "payable": false,
      "stateMutability": "view",
      "type": "function"
    },
    {
      "constant": true,
      "inputs": [
        {
          "name": "_id",
          "type": "uint256"
        }
      ],
      "name": "getOrderIndex",
      "outputs": [
        {
          "name": "index",
          "type": "uint256"
        }
      ],
      "payable": false,
      "stateMutability": "view",
      "type": "function"
    },
    {
      "constant": true,
      "inputs": [],
      "name": "getOrdersCount",
      "outputs": [
        {
          "name": "",
          "type": "uint256"
        }
      ],
      "payable": false,
      "stateMutability": "view",
      "type": "function"
    },
    {
      "constant": false,
      "inputs": [
        {
          "name": "_title",
          "type": "bytes32"
        },
        {
          "name": "_ownerContactEmail",
          "type": "bytes32"
        },
        {
          "name": "_ownerContactAdditional",
          "type": "bytes32"
        },
        {
          "name": "_ipfsTextDescription",
          "type": "string"
        },
        {
          "name": "_ipfsDetailsFile",
          "type": "string"
        }
      ],
      "name": "createOrder",
      "outputs": [],
      "payable": true,
      "stateMutability": "payable",
      "type": "function"
    },
    {
      "constant": false,
      "inputs": [
        {
          "name": "_id",
          "type": "uint256"
        }
      ],
      "name": "removeOrder",
      "outputs": [],
      "payable": false,
      "stateMutability": "nonpayable",
      "type": "function"
    },
    {
      "constant": false,
      "inputs": [
        {
          "name": "_id",
          "type": "uint256"
        },
        {
          "name": "_percentProportionToOwner",
          "type": "uint256"
        }
      ],
      "name": "moderRemoveOrder",
      "outputs": [],
      "payable": false,
      "stateMutability": "nonpayable",
      "type": "function"
    },
    {
      "constant": false,
      "inputs": [
        {
          "name": "_id",
          "type": "uint256"
        },
        {
          "name": "_title",
          "type": "bytes32"
        },
        {
          "name": "_ownerContactEmail",
          "type": "bytes32"
        },
        {
          "name": "_ownerContactAdditional",
          "type": "bytes32"
        },
        {
          "name": "_ipfsTextDescription",
          "type": "string"
        },
        {
          "name": "_ipfsDetailsFile",
          "type": "string"
        }
      ],
      "name": "modifyOrder",
      "outputs": [],
      "payable": true,
      "stateMutability": "payable",
      "type": "function"
    },
    {
      "constant": false,
      "inputs": [
        {
          "name": "_id",
          "type": "uint256"
        },
        {
          "name": "_title",
          "type": "bytes32"
        },
        {
          "name": "_ownerContactEmail",
          "type": "bytes32"
        },
        {
          "name": "_ownerContactAdditional",
          "type": "bytes32"
        },
        {
          "name": "_ipfsTextDescription",
          "type": "string"
        },
        {
          "name": "_ipfsDetailsFile",
          "type": "string"
        },
        {
          "name": "_ownerLock",
          "type": "bool"
        },
        {
          "name": "_freelancerLock",
          "type": "bool"
        }
      ],
      "name": "moderModifyOrder",
      "outputs": [],
      "payable": false,
      "stateMutability": "nonpayable",
      "type": "function"
    },
    {
      "constant": false,
      "inputs": [
        {
          "name": "_id",
          "type": "uint256"
        },
        {
          "name": "_freelancer",
          "type": "address"
        },
        {
          "name": "_freelancerContactEmail",
          "type": "bytes32"
        }
      ],
      "name": "setOrderFreelancer",
      "outputs": [],
      "payable": false,
      "stateMutability": "nonpayable",
      "type": "function"
    },
    {
      "constant": true,
      "inputs": [
        {
          "name": "_id",
          "type": "uint256"
        }
      ],
      "name": "isMyselfApprovedForOrder",
      "outputs": [
        {
          "name": "",
          "type": "bool"
        }
      ],
      "payable": false,
      "stateMutability": "view",
      "type": "function"
    },
    {
      "constant": true,
      "inputs": [
        {
          "name": "_id",
          "type": "uint256"
        },
        {
          "name": "_freelancer",
          "type": "address"
        }
      ],
      "name": "isAddressApprovedForOrder",
      "outputs": [
        {
          "name": "",
          "type": "bool"
        }
      ],
      "payable": false,
      "stateMutability": "view",
      "type": "function"
    },
    {
      "constant": true,
      "inputs": [
        {
          "name": "_id",
          "type": "uint256"
        },
        {
          "name": "_freelancerContactEmail",
          "type": "bytes32"
        }
      ],
      "name": "isFreelancerEmailCorrectForOrder",
      "outputs": [
        {
          "name": "",
          "type": "bool"
        }
      ],
      "payable": false,
      "stateMutability": "view",
      "type": "function"
    },
    {
      "constant": false,
      "inputs": [
        {
          "name": "_id",
          "type": "uint256"
        }
      ],
      "name": "unlockOrderOwner",
      "outputs": [],
      "payable": false,
      "stateMutability": "nonpayable",
      "type": "function"
    },
    {
      "constant": false,
      "inputs": [
        {
          "name": "_id",
          "type": "uint256"
        }
      ],
      "name": "unlockOrderFreelancer",
      "outputs": [],
      "payable": false,
      "stateMutability": "nonpayable",
      "type": "function"
    },
    {
      "constant": false,
      "inputs": [
        {
          "name": "_id",
          "type": "uint256"
        }
      ],
      "name": "completeOrder",
      "outputs": [],
      "payable": false,
      "stateMutability": "nonpayable",
      "type": "function"
    }
  ],
  "bytecode": "0x608060405260008060146101000a81548160ff0219169083151502179055503480156200002b57600080fd5b506040516020806200564183398101806040528101908080519060200190929190505050336000806101000a81548173ffffffffffffffffffffffffffffffffffffffff021916908373ffffffffffffffffffffffffffffffffffffffff16021790555060008110158015620000a15750606481105b15156200013c576040517f08c379a00000000000000000000000000000000000000000000000000000000081526004018080602001828103825260218152602001807f486f75736520456467652073686f7564206265206265747765656e20302d313081526020017f300000000000000000000000000000000000000000000000000000000000000081525060400191505060405180910390fd5b80600181905550506154ed80620001546000396000f300608060405260043610610180576000357c0100000000000000000000000000000000000000000000000000000000900463ffffffff16806301400230146101ee5780630cc3bbd8146103c65780631071a94f146103f3578063289014921461042a5780633f4ba83a1461045557806342b50a7a1461046c5780635662ecc7146106325780635c975abb1461065d5780635d11b3d11461068c5780636f1eab93146106f1578063715018a614610736578063729b35891461074d5780638456cb5914610790578063849416a6146107a75780638da5cb5b146108735780639418a8a2146108ca5780639645337a146108f55780639aee792f146109225780639d3259ea1461097d578063b5b3b05114610a78578063b6adaaff14610aa3578063bac1c4ae14610ad0578063c6e03a8314610afd578063c97e188a14610b50578063d402506914610bab578063d667dcd714610c81578063e038326114610cac578063e17c8b9014610cd9578063e7b2fdb414610d1c578063f2fde38b14610d5d575b6040517f08c379a000000000000000000000000000000000000000000000000000000000815260040180806020018281038252601f8152602001807f4e6f20706c61696e2066756e6473207472616e7366657220616c6c6f7765640081525060200191505060405180910390fd5b3480156101fa57600080fd5b5061021960048036038101908080359060200190929190505050610da0565b604051808d81526020018c600019166000191681526020018b73ffffffffffffffffffffffffffffffffffffffff1673ffffffffffffffffffffffffffffffffffffffff1681526020018a6000191660001916815260200189600019166000191681526020018873ffffffffffffffffffffffffffffffffffffffff1673ffffffffffffffffffffffffffffffffffffffff168152602001876000191660001916815260200186815260200180602001806020018515151515815260200184151515158152602001838103835287818151815260200191508051906020019080838360005b838110156103195780820151818401526020810190506102fe565b50505050905090810190601f1680156103465780820380516001836020036101000a031916815260200191505b50838103825286818151815260200191508051906020019080838360005b8381101561037f578082015181840152602081019050610364565b50505050905090810190601f1680156103ac5780820380516001836020036101000a031916815260200191505b509e50505050505050505050505050505060405180910390f35b3480156103d257600080fd5b506103f160048036038101908080359060200190929190505050610f99565b005b3480156103ff57600080fd5b5061042860048036038101908080359060200190929190803590602001909291905050506110f9565b005b34801561043657600080fd5b5061043f6115cc565b6040518082815260200191505060405180910390f35b34801561046157600080fd5b5061046a6115d7565b005b34801561047857600080fd5b5061049760048036038101908080359060200190929190505050611695565b604051808b600019166000191681526020018a73ffffffffffffffffffffffffffffffffffffffff1673ffffffffffffffffffffffffffffffffffffffff168152602001896000191660001916815260200188600019166000191681526020018773ffffffffffffffffffffffffffffffffffffffff1673ffffffffffffffffffffffffffffffffffffffff1681526020018660001916600019168152602001858152602001806020018060200184151515158152602001838103835286818151815260200191508051906020019080838360005b8381101561058757808201518184015260208101905061056c565b50505050905090810190601f1680156105b45780820380516001836020036101000a031916815260200191505b50838103825285818151815260200191508051906020019080838360005b838110156105ed5780820151818401526020810190506105d2565b50505050905090810190601f16801561061a5780820380516001836020036101000a031916815260200191505b509c5050505050505050505050505060405180910390f35b34801561063e57600080fd5b506106476119a6565b6040518082815260200191505060405180910390f35b34801561066957600080fd5b506106726119ac565b604051808215151515815260200191505060405180910390f35b34801561069857600080fd5b506106d760048036038101908080359060200190929190803573ffffffffffffffffffffffffffffffffffffffff1690602001909291905050506119bf565b604051808215151515815260200191505060405180910390f35b3480156106fd57600080fd5b5061071c60048036038101908080359060200190929190505050611b34565b604051808215151515815260200191505060405180910390f35b34801561074257600080fd5b5061074b611b47565b005b34801561075957600080fd5b5061078e600480360381019080803573ffffffffffffffffffffffffffffffffffffffff169060200190929190505050611c49565b005b34801561079c57600080fd5b506107a5611d42565b005b610871600480360381019080803560001916906020019092919080356000191690602001909291908035600019169060200190929190803590602001908201803590602001908080601f0160208091040260200160405190810160405280939291908181526020018383808284378201915050505050509192919290803590602001908201803590602001908080601f0160208091040260200160405190810160405280939291908181526020018383808284378201915050505050509192919290505050611e02565b005b34801561087f57600080fd5b5061088861254c565b604051808273ffffffffffffffffffffffffffffffffffffffff1673ffffffffffffffffffffffffffffffffffffffff16815260200191505060405180910390f35b3480156108d657600080fd5b506108df612571565b6040518082815260200191505060405180910390f35b34801561090157600080fd5b5061092060048036038101908080359060200190929190505050612577565b005b34801561092e57600080fd5b50610963600480360381019080803573ffffffffffffffffffffffffffffffffffffffff1690602001909291905050506129dc565b604051808215151515815260200191505060405180910390f35b34801561098957600080fd5b50610a7660048036038101908080359060200190929190803560001916906020019092919080356000191690602001909291908035600019169060200190929190803590602001908201803590602001908080601f0160208091040260200160405190810160405280939291908181526020018383808284378201915050505050509192919290803590602001908201803590602001908080601f01602080910402602001604051908101604052809392919081815260200183838082843782019150505050505091929192908035151590602001909291908035151590602001909291905050506129fc565b005b348015610a8457600080fd5b50610a8d612df9565b6040518082815260200191505060405180910390f35b348015610aaf57600080fd5b50610ace60048036038101908080359060200190929190505050612e06565b005b348015610adc57600080fd5b50610afb600480360381019080803590602001909291905050506132a0565b005b348015610b0957600080fd5b50610b366004803603810190808035906020019092919080356000191690602001909291905050506134d4565b604051808215151515815260200191505060405180910390f35b348015610b5c57600080fd5b50610ba960048036038101908080359060200190929190803573ffffffffffffffffffffffffffffffffffffffff16906020019092919080356000191690602001909291905050506135cf565b005b610c7f60048036038101908080359060200190929190803560001916906020019092919080356000191690602001909291908035600019169060200190929190803590602001908201803590602001908080601f0160208091040260200160405190810160405280939291908181526020018383808284378201915050505050509192919290803590602001908201803590602001908080601f0160208091040260200160405190810160405280939291908181526020018383808284378201915050505050509192919290505050613cb3565b005b348015610c8d57600080fd5b50610c96614372565b6040518082815260200191505060405180910390f35b348015610cb857600080fd5b50610cd760048036038101908080359060200190929190505050614378565b005b348015610ce557600080fd5b50610d1a600480360381019080803573ffffffffffffffffffffffffffffffffffffffff1690602001909291905050506145ac565b005b348015610d2857600080fd5b50610d47600480360381019080803590602001909291905050506146a5565b6040518082815260200191505060405180910390f35b348015610d6957600080fd5b50610d9e600480360381019080803573ffffffffffffffffffffffffffffffffffffffff16906020019092919050505061475f565b005b600581815481101515610daf57fe5b90600052602060002090600b02016000915090508060000154908060010154908060020160009054906101000a900473ffffffffffffffffffffffffffffffffffffffff16908060030154908060040154908060050160009054906101000a900473ffffffffffffffffffffffffffffffffffffffff1690806006015490806007015490806008018054600181600116156101000203166002900480601f016020809104026020016040519081016040528092919081815260200182805460018160011615610100020316600290048015610ecb5780601f10610ea057610100808354040283529160200191610ecb565b820191906000526020600020905b815481529060010190602001808311610eae57829003601f168201915b505050505090806009018054600181600116156101000203166002900480601f016020809104026020016040519081016040528092919081815260200182805460018160011615610100020316600290048015610f695780601f10610f3e57610100808354040283529160200191610f69565b820191906000526020600020905b815481529060010190602001808311610f4c57829003601f168201915b50505050509080600a0160009054906101000a900460ff169080600a0160019054906101000a900460ff1690508c565b6000809054906101000a900473ffffffffffffffffffffffffffffffffffffffff1673ffffffffffffffffffffffffffffffffffffffff163373ffffffffffffffffffffffffffffffffffffffff16141515610ff457600080fd5b6002548111151515611094576040517f08c379a00000000000000000000000000000000000000000000000000000000081526004018080602001828103825260288152602001807f4e6f7420656e6f7567682066756e6473206f6e20636f6e747261637420746f2081526020017f776974686472617700000000000000000000000000000000000000000000000081525060400191505060405180910390fd5b6110a9816002546147c690919063ffffffff16565b6002819055503373ffffffffffffffffffffffffffffffffffffffff166108fc829081150290604051600060405180830381858888f193505050501580156110f5573d6000803e3d6000fd5b5050565b600080600080600080600080600060011515600360003373ffffffffffffffffffffffffffffffffffffffff1673ffffffffffffffffffffffffffffffffffffffff16815260200190815260200160002060009054906101000a900460ff1615151491506000809054906101000a900473ffffffffffffffffffffffffffffffffffffffff1673ffffffffffffffffffffffffffffffffffffffff163373ffffffffffffffffffffffffffffffffffffffff1614905081806111b85750805b1515611252576040517f08c379a00000000000000000000000000000000000000000000000000000000081526004018080602001828103825260228152602001807f43757272656e742061646472657373206973206e6f742061206d6f646572617481526020017f6f7200000000000000000000000000000000000000000000000000000000000081525060400191505060405180910390fd5b8a6006600082815260200190815260200160002060000160009054906101000a900460ff1615156112eb576040517f08c379a00000000000000000000000000000000000000000000000000000000081526004018080602001828103825260148152602001807f4f7264657220646f6573206e6f7420657869737400000000000000000000000081525060200191505060405180910390fd5b60008b101580156112fd575060648b11155b1515611397576040517f08c379a000000000000000000000000000000000000000000000000000000000815260040180806020018281038252602a8152602001807f50657263656e742070726f706f7274696f6e2073686f756c642062652062657481526020017f7765656e20302d3130300000000000000000000000000000000000000000000081525060400191505060405180910390fd5b6113a08c6147df565b9950995099506113cc60646113be8d8d614e6090919063ffffffff16565b614e9890919063ffffffff16565b965060648b101561153357600073ffffffffffffffffffffffffffffffffffffffff168873ffffffffffffffffffffffffffffffffffffffff161415151561147c576040517f08c379a000000000000000000000000000000000000000000000000000000000815260040180806020018281038252601f8152602001807f43616e27742073656e6420636f696e7320746f2030783020616464726573730081525060200191505060405180910390fd5b61148f878b6147c690919063ffffffff16565b95506114b960646114ab60015489614e6090919063ffffffff16565b614e9890919063ffffffff16565b94506114ce85876147c690919063ffffffff16565b93506114e585600254614eae90919063ffffffff16565b6002819055508773ffffffffffffffffffffffffffffffffffffffff166108fc859081150290604051600060405180830381858888f19350505050158015611531573d6000803e3d6000fd5b505b8873ffffffffffffffffffffffffffffffffffffffff166108fc889081150290604051600060405180830381858888f19350505050158015611579573d6000803e3d6000fd5b503373ffffffffffffffffffffffffffffffffffffffff168c7f6e0d90aa1dad8b6be411073e33e1d3d58c029b20bf650e2644f21a8617992ece60405160405180910390a3505050505050505050505050565b662386f26fc1000081565b6000809054906101000a900473ffffffffffffffffffffffffffffffffffffffff1673ffffffffffffffffffffffffffffffffffffffff163373ffffffffffffffffffffffffffffffffffffffff1614151561163257600080fd5b600060149054906101000a900460ff16151561164d57600080fd5b60008060146101000a81548160ff0219169083151502179055507f7805862f689e2f13df9f062ff482ad3ad112aca9e0847911ed832e158c525b3360405160405180910390a1565b600080600080600080600060608060008060008c6006600082815260200190815260200160002060000160009054906101000a900460ff161515611741576040517f08c379a00000000000000000000000000000000000000000000000000000000081526004018080602001828103825260148152602001807f4f7264657220646f6573206e6f7420657869737400000000000000000000000081525060200191505060405180910390fd5b600660008f815260200190815260200160002060010154925060058381548110151561176957fe5b90600052602060002090600b0201915060058381548110151561178857fe5b90600052602060002090600b0201600a0160009054906101000a900460ff16806117dc57506005838154811015156117bc57fe5b90600052602060002090600b0201600a0160019054906101000a900460ff165b935081600101548260020160009054906101000a900473ffffffffffffffffffffffffffffffffffffffff16836003015484600401548560050160009054906101000a900473ffffffffffffffffffffffffffffffffffffffff168660060154876007015488600801896009018c828054600181600116156101000203166002900480601f0160208091040260200160405190810160405280929190818152602001828054600181600116156101000203166002900480156118df5780601f106118b4576101008083540402835291602001916118df565b820191906000526020600020905b8154815290600101906020018083116118c257829003601f168201915b50505050509250818054600181600116156101000203166002900480601f01602080910402602001604051908101604052809291908181526020018280546001816001161561010002031660029004801561197b5780601f106119505761010080835404028352916020019161197b565b820191906000526020600020905b81548152906001019060200180831161195e57829003601f168201915b505050505091509c509c509c509c509c509c509c509c509c509c505050509193959799509193959799565b60045481565b600060149054906101000a900460ff1681565b600080836006600082815260200190815260200160002060000160009054906101000a900460ff161515611a5b576040517f08c379a00000000000000000000000000000000000000000000000000000000081526004018080602001828103825260148152602001807f4f7264657220646f6573206e6f7420657869737400000000000000000000000081525060200191505060405180910390fd5b60066000868152602001908152602001600020600101549150600582815481101515611a8357fe5b90600052602060002090600b020160050160009054906101000a900473ffffffffffffffffffffffffffffffffffffffff1673ffffffffffffffffffffffffffffffffffffffff168473ffffffffffffffffffffffffffffffffffffffff16148015611b195750600582815481101515611af957fe5b90600052602060002090600b0201600a0160019054906101000a900460ff165b15611b275760019250611b2c565b600092505b505092915050565b6000611b4082336119bf565b9050919050565b6000809054906101000a900473ffffffffffffffffffffffffffffffffffffffff1673ffffffffffffffffffffffffffffffffffffffff163373ffffffffffffffffffffffffffffffffffffffff16141515611ba257600080fd5b6000809054906101000a900473ffffffffffffffffffffffffffffffffffffffff1673ffffffffffffffffffffffffffffffffffffffff167ff8df31144d9c2f0f6b59d69b8b98abd5459d07f2742c4df920b25aae33c6482060405160405180910390a260008060006101000a81548173ffffffffffffffffffffffffffffffffffffffff021916908373ffffffffffffffffffffffffffffffffffffffff160217905550565b6000809054906101000a900473ffffffffffffffffffffffffffffffffffffffff1673ffffffffffffffffffffffffffffffffffffffff163373ffffffffffffffffffffffffffffffffffffffff16141515611ca457600080fd5b6001600360008373ffffffffffffffffffffffffffffffffffffffff1673ffffffffffffffffffffffffffffffffffffffff16815260200190815260200160002060006101000a81548160ff0219169083151502179055508073ffffffffffffffffffffffffffffffffffffffff167f98a40cebb220e9d2b62da0499b6913c6019eaad9b2c920fe3667f7a16cb2d52660405160405180910390a250565b6000809054906101000a900473ffffffffffffffffffffffffffffffffffffffff1673ffffffffffffffffffffffffffffffffffffffff163373ffffffffffffffffffffffffffffffffffffffff16141515611d9d57600080fd5b600060149054906101000a900460ff16151515611db957600080fd5b6001600060146101000a81548160ff0219169083151502179055507f6985a02210a168e66602d3235cb6db0e70f92b3ba4d376a33c0f3d9434bff62560405160405180910390a1565b6000611e0c6150ec565b600080600060149054906101000a900460ff16151515611e2b57600080fd5b662386f26fc100003410151515611eaa576040517f08c379a000000000000000000000000000000000000000000000000000000000815260040180806020018281038252601f8152602001807f4d696e696d616c20627564676574206973206e6f742066756c66696c6c65640081525060200191505060405180910390fd5b611eb333614eca565b151515611f4e576040517f08c379a000000000000000000000000000000000000000000000000000000000815260040180806020018281038252602b8152602001807f436f6e74726163747320617265206e6f7420616c6c6f77656420746f2063726581526020017f617465206f72646572732100000000000000000000000000000000000000000081525060400191505060405180910390fd5b60007f010000000000000000000000000000000000000000000000000000000000000002886000602081101515611f8157fe5b1a7f0100000000000000000000000000000000000000000000000000000000000000027effffffffffffffffffffffffffffffffffffffffffffffffffffffffffffff19161415151561203c576040517f08c379a00000000000000000000000000000000000000000000000000000000081526004018080602001828103825260128152602001807f452d6d61696c206973207265717569726564000000000000000000000000000081525060200191505060405180910390fd5b6120526001600454614eae90919063ffffffff16565b935083600481905550610180604051908101604052808581526020018a6000191681526020013373ffffffffffffffffffffffffffffffffffffffff1681526020018960001916815260200188600019168152602001600073ffffffffffffffffffffffffffffffffffffffff1681526020016000801916815260200134815260200187815260200186815260200160001515815260200160001515815250925060016005849080600181540180825580915050906001820390600052602060002090600b020160009091929091909150600082015181600001556020820151816001019060001916905560408201518160020160006101000a81548173ffffffffffffffffffffffffffffffffffffffff021916908373ffffffffffffffffffffffffffffffffffffffff160217905550606082015181600301906000191690556080820151816004019060001916905560a08201518160050160006101000a81548173ffffffffffffffffffffffffffffffffffffffff021916908373ffffffffffffffffffffffffffffffffffffffff16021790555060c0820151816006019060001916905560e0820151816007015561010082015181600801908051906020019061222292919061518a565b5061012082015181600901908051906020019061224092919061518a565b5061014082015181600a0160006101000a81548160ff02191690831515021790555061016082015181600a0160016101000a81548160ff021916908315150217905550505003915060016006600086815260200190815260200160002060000160006101000a81548160ff0219169083151502179055508160066000868152602001908152602001600020600101819055506001600760003373ffffffffffffffffffffffffffffffffffffffff1673ffffffffffffffffffffffffffffffffffffffff16815260200190815260200160002085908060018154018082558091505090600182039060005260206000200160009091929091909150550390506001600860003373ffffffffffffffffffffffffffffffffffffffff1673ffffffffffffffffffffffffffffffffffffffff168152602001908152602001600020600086815260200190815260200160002060000160006101000a81548160ff02191690831515021790555080600860003373ffffffffffffffffffffffffffffffffffffffff1673ffffffffffffffffffffffffffffffffffffffff16815260200190815260200160002060008681526020019081526020016000206001018190555087600019163373ffffffffffffffffffffffffffffffffffffffff16857f6cb7afc97b73fe50258b6e081244bb214c2ffcbc35859c2308204bdd805e327d8c348b8b6040518085600019166000191681526020018481526020018060200180602001838103835285818151815260200191508051906020019080838360005b8381101561249d578082015181840152602081019050612482565b50505050905090810190601f1680156124ca5780820380516001836020036101000a031916815260200191505b50838103825284818151815260200191508051906020019080838360005b838110156125035780820151818401526020810190506124e8565b50505050905090810190601f1680156125305780820380516001836020036101000a031916815260200191505b50965050505050505060405180910390a4505050505050505050565b6000809054906101000a900473ffffffffffffffffffffffffffffffffffffffff1681565b60025481565b6000816006600082815260200190815260200160002060000160009054906101000a900460ff161515612612576040517f08c379a00000000000000000000000000000000000000000000000000000000081526004018080602001828103825260148152602001807f4f7264657220646f6573206e6f7420657869737400000000000000000000000081525060200191505060405180910390fd5b3373ffffffffffffffffffffffffffffffffffffffff166005600660008481526020019081526020016000206001015481548110151561264e57fe5b90600052602060002090600b020160020160009054906101000a900473ffffffffffffffffffffffffffffffffffffffff1673ffffffffffffffffffffffffffffffffffffffff1614151561270b576040517f08c379a00000000000000000000000000000000000000000000000000000000081526004018080602001828103825260138152602001807f4e6f7420746865206f72646572206f776e65720000000000000000000000000081525060200191505060405180910390fd5b826006600082815260200190815260200160002060000160009054906101000a900460ff1615156127a4576040517f08c379a00000000000000000000000000000000000000000000000000000000081526004018080602001828103825260148152602001807f4f7264657220646f6573206e6f7420657869737400000000000000000000000081525060200191505060405180910390fd5b60001515600560066000848152602001908152602001600020600101548154811015156127cd57fe5b90600052602060002090600b0201600a0160009054906101000a900460ff161515141515612863576040517f08c379a000000000000000000000000000000000000000000000000000000000815260040180806020018281038252600f8152602001807f4c6f636b6564206279206f776e6572000000000000000000000000000000000081525060200191505060405180910390fd5b600015156005600660008481526020019081526020016000206001015481548110151561288c57fe5b90600052602060002090600b0201600a0160019054906101000a900460ff161515141515612922576040517f08c379a00000000000000000000000000000000000000000000000000000000081526004018080602001828103825260148152602001807f4c6f636b656420627920667265656c616e63657200000000000000000000000081525060200191505060405180910390fd5b600060149054906101000a900460ff1615151561293e57600080fd5b612947846147df565b505092503373ffffffffffffffffffffffffffffffffffffffff166108fc849081150290604051600060405180830381858888f19350505050158015612991573d6000803e3d6000fd5b503373ffffffffffffffffffffffffffffffffffffffff16847f6e0d90aa1dad8b6be411073e33e1d3d58c029b20bf650e2644f21a8617992ece60405160405180910390a350505050565b60036020528060005260406000206000915054906101000a900460ff1681565b600080600060011515600360003373ffffffffffffffffffffffffffffffffffffffff1673ffffffffffffffffffffffffffffffffffffffff16815260200190815260200160002060009054906101000a900460ff1615151491506000809054906101000a900473ffffffffffffffffffffffffffffffffffffffff1673ffffffffffffffffffffffffffffffffffffffff163373ffffffffffffffffffffffffffffffffffffffff161490508180612ab25750805b1515612b4c576040517f08c379a00000000000000000000000000000000000000000000000000000000081526004018080602001828103825260228152602001807f43757272656e742061646472657373206973206e6f742061206d6f646572617481526020017f6f7200000000000000000000000000000000000000000000000000000000000081525060400191505060405180910390fd5b8a6006600082815260200190815260200160002060000160009054906101000a900460ff161515612be5576040517f08c379a00000000000000000000000000000000000000000000000000000000081526004018080602001828103825260148152602001807f4f7264657220646f6573206e6f7420657869737400000000000000000000000081525060200191505060405180910390fd5b612bf38c8c8c8c8c8c614ee3565b935085600585815481101515612c0557fe5b90600052602060002090600b0201600a0160006101000a81548160ff02191690831515021790555084600585815481101515612c3d57fe5b90600052602060002090600b0201600a0160016101000a81548160ff02191690831515021790555089600019163373ffffffffffffffffffffffffffffffffffffffff168d7f7d9c5ae9450f4d9b3d354b5ece3224807ad55445b40ed1e53a1dd6d72c7ee6288e8d60058a815481101515612cb457fe5b90600052602060002090600b0201600701548e8e8e8e604051808860001916600019168152602001876000191660001916815260200186815260200180602001806020018515151515815260200184151515158152602001838103835287818151815260200191508051906020019080838360005b83811015612d44578082015181840152602081019050612d29565b50505050905090810190601f168015612d715780820380516001836020036101000a031916815260200191505b50838103825286818151815260200191508051906020019080838360005b83811015612daa578082015181840152602081019050612d8f565b50505050905090810190601f168015612dd75780820380516001836020036101000a031916815260200191505b50995050505050505050505060405180910390a4505050505050505050505050565b6000600580549050905090565b600080600080600080866006600082815260200190815260200160002060000160009054906101000a900460ff161515612ea8576040517f08c379a00000000000000000000000000000000000000000000000000000000081526004018080602001828103825260148152602001807f4f7264657220646f6573206e6f7420657869737400000000000000000000000081525060200191505060405180910390fd5b3373ffffffffffffffffffffffffffffffffffffffff1660056006600084815260200190815260200160002060010154815481101515612ee457fe5b90600052602060002090600b020160020160009054906101000a900473ffffffffffffffffffffffffffffffffffffffff1673ffffffffffffffffffffffffffffffffffffffff16141515612fa1576040517f08c379a00000000000000000000000000000000000000000000000000000000081526004018080602001828103825260138152602001807f4e6f7420746865206f72646572206f776e65720000000000000000000000000081525060200191505060405180910390fd5b600060149054906101000a900460ff16151515612fbd57600080fd5b60066000898152602001908152602001600020600101549650600587815481101515612fe557fe5b90600052602060002090600b0201600a0160019054906101000a900460ff1680613039575060058781548110151561301957fe5b90600052602060002090600b0201600a0160009054906101000a900460ff165b95508515156130d6576040517f08c379a000000000000000000000000000000000000000000000000000000000815260040180806020018281038252603c8152602001807f4f72646572206973206e6f74206c6f636b65642e20596f752063616e2774206381526020017f6f6d706c6574652066756c6c7920756e6c6f636b6564206f726465720000000081525060400191505060405180910390fd5b6005878154811015156130e557fe5b90600052602060002090600b020160050160009054906101000a900473ffffffffffffffffffffffffffffffffffffffff1673ffffffffffffffffffffffffffffffffffffffff168473ffffffffffffffffffffffffffffffffffffffff16141515156131ba576040517f08c379a000000000000000000000000000000000000000000000000000000000815260040180806020018281038252601f8152602001807f43616e27742073656e6420636f696e7320746f2030783020616464726573730081525060200191505060405180910390fd5b6131c3886147df565b95505094506131f060646131e260015488614e6090919063ffffffff16565b614e9890919063ffffffff16565b925061320583866147c690919063ffffffff16565b915061321c83600254614eae90919063ffffffff16565b6002819055508373ffffffffffffffffffffffffffffffffffffffff166108fc839081150290604051600060405180830381858888f19350505050158015613268573d6000803e3d6000fd5b50877f52a62871f4d486cb4c99087b6ec6a2af63e3fb2fa0dbb9f411dd9fc3ceef8d7160405160405180910390a25050505050505050565b6000816006600082815260200190815260200160002060000160009054906101000a900460ff16151561333b576040517f08c379a00000000000000000000000000000000000000000000000000000000081526004018080602001828103825260148152602001807f4f7264657220646f6573206e6f7420657869737400000000000000000000000081525060200191505060405180910390fd5b3373ffffffffffffffffffffffffffffffffffffffff166005600660008481526020019081526020016000206001015481548110151561337757fe5b90600052602060002090600b020160050160009054906101000a900473ffffffffffffffffffffffffffffffffffffffff1673ffffffffffffffffffffffffffffffffffffffff16141515613434576040517f08c379a00000000000000000000000000000000000000000000000000000000081526004018080602001828103825260188152602001807f4e6f7420746865206f7264657220667265656c616e636572000000000000000081525060200191505060405180910390fd5b600060149054906101000a900460ff1615151561345057600080fd5b60066000848152602001908152602001600020600101549150600060058381548110151561347a57fe5b90600052602060002090600b0201600a0160016101000a81548160ff021916908315150217905550827f16248b5deb63a05f25593889567ea63a5d4c1896d589c1f424f4e3bb2b280a4260405160405180910390a2505050565b600080836006600082815260200190815260200160002060000160009054906101000a900460ff161515613570576040517f08c379a00000000000000000000000000000000000000000000000000000000081526004018080602001828103825260148152602001807f4f7264657220646f6573206e6f7420657869737400000000000000000000000081525060200191505060405180910390fd5b6006600086815260200190815260200160002060010154915060058281548110151561359857fe5b90600052602060002090600b02016006015460001916846000191614156135c257600192506135c7565b600092505b505092915050565b6000836006600082815260200190815260200160002060000160009054906101000a900460ff16151561366a576040517f08c379a00000000000000000000000000000000000000000000000000000000081526004018080602001828103825260148152602001807f4f7264657220646f6573206e6f7420657869737400000000000000000000000081525060200191505060405180910390fd5b3373ffffffffffffffffffffffffffffffffffffffff16600560066000848152602001908152602001600020600101548154811015156136a657fe5b90600052602060002090600b020160020160009054906101000a900473ffffffffffffffffffffffffffffffffffffffff1673ffffffffffffffffffffffffffffffffffffffff16141515613763576040517f08c379a00000000000000000000000000000000000000000000000000000000081526004018080602001828103825260138152602001807f4e6f7420746865206f72646572206f776e65720000000000000000000000000081525060200191505060405180910390fd5b846006600082815260200190815260200160002060000160009054906101000a900460ff1615156137fc576040517f08c379a00000000000000000000000000000000000000000000000000000000081526004018080602001828103825260148152602001807f4f7264657220646f6573206e6f7420657869737400000000000000000000000081525060200191505060405180910390fd5b600015156005600660008481526020019081526020016000206001015481548110151561382557fe5b90600052602060002090600b0201600a0160009054906101000a900460ff1615151415156138bb576040517f08c379a000000000000000000000000000000000000000000000000000000000815260040180806020018281038252600f8152602001807f4c6f636b6564206279206f776e6572000000000000000000000000000000000081525060200191505060405180910390fd5b60001515600560066000848152602001908152602001600020600101548154811015156138e457fe5b90600052602060002090600b0201600a0160019054906101000a900460ff16151514151561397a576040517f08c379a00000000000000000000000000000000000000000000000000000000081526004018080602001828103825260148152602001807f4c6f636b656420627920667265656c616e63657200000000000000000000000081525060200191505060405180910390fd5b600060149054906101000a900460ff1615151561399657600080fd5b600073ffffffffffffffffffffffffffffffffffffffff168573ffffffffffffffffffffffffffffffffffffffff1614151515613a61576040517f08c379a00000000000000000000000000000000000000000000000000000000081526004018080602001828103825260238152602001807f43616e27742061646420307830206164647265737320617320667265656c616e81526020017f636572000000000000000000000000000000000000000000000000000000000081525060400191505060405180910390fd5b60007f010000000000000000000000000000000000000000000000000000000000000002846000602081101515613a9457fe5b1a7f0100000000000000000000000000000000000000000000000000000000000000027effffffffffffffffffffffffffffffffffffffffffffffffffffffffffffff191614151515613b4f576040517f08c379a000000000000000000000000000000000000000000000000000000000815260040180806020018281038252601d8152602001807f467265656c616e63657220652d6d61696c20697320726571756972656400000081525060200191505060405180910390fd5b6006600087815260200190815260200160002060010154925084600584815481101515613b7857fe5b90600052602060002090600b020160050160006101000a81548173ffffffffffffffffffffffffffffffffffffffff021916908373ffffffffffffffffffffffffffffffffffffffff16021790555083600584815481101515613bd757fe5b90600052602060002090600b020160060181600019169055506001600584815481101515613c0157fe5b90600052602060002090600b0201600a0160006101000a81548160ff0219169083151502179055506001600584815481101515613c3a57fe5b90600052602060002090600b0201600a0160016101000a81548160ff02191690831515021790555083600019168573ffffffffffffffffffffffffffffffffffffffff16877f202bc38750717bbb400e84da2723502537bf689758c8892a511f419a6b2c270060405160405180910390a4505050505050565b6000806000886006600082815260200190815260200160002060000160009054906101000a900460ff161515613d51576040517f08c379a00000000000000000000000000000000000000000000000000000000081526004018080602001828103825260148152602001807f4f7264657220646f6573206e6f7420657869737400000000000000000000000081525060200191505060405180910390fd5b3373ffffffffffffffffffffffffffffffffffffffff1660056006600084815260200190815260200160002060010154815481101515613d8d57fe5b90600052602060002090600b020160020160009054906101000a900473ffffffffffffffffffffffffffffffffffffffff1673ffffffffffffffffffffffffffffffffffffffff16141515613e4a576040517f08c379a00000000000000000000000000000000000000000000000000000000081526004018080602001828103825260138152602001807f4e6f7420746865206f72646572206f776e65720000000000000000000000000081525060200191505060405180910390fd5b896006600082815260200190815260200160002060000160009054906101000a900460ff161515613ee3576040517f08c379a00000000000000000000000000000000000000000000000000000000081526004018080602001828103825260148152602001807f4f7264657220646f6573206e6f7420657869737400000000000000000000000081525060200191505060405180910390fd5b6000151560056006600084815260200190815260200160002060010154815481101515613f0c57fe5b90600052602060002090600b0201600a0160009054906101000a900460ff161515141515613fa2576040517f08c379a000000000000000000000000000000000000000000000000000000000815260040180806020018281038252600f8152602001807f4c6f636b6564206279206f776e6572000000000000000000000000000000000081525060200191505060405180910390fd5b6000151560056006600084815260200190815260200160002060010154815481101515613fcb57fe5b90600052602060002090600b0201600a0160019054906101000a900460ff161515141515614061576040517f08c379a00000000000000000000000000000000000000000000000000000000081526004018080602001828103825260148152602001807f4c6f636b656420627920667265656c616e63657200000000000000000000000081525060200191505060405180910390fd5b600060149054906101000a900460ff1615151561407d57600080fd5b61408b8b8b8b8b8b8b614ee3565b9450662386f26fc10000341115614133573493506005858154811015156140ae57fe5b90600052602060002090600b0201600701549250836005868154811015156140d257fe5b90600052602060002090600b0201600701819055503373ffffffffffffffffffffffffffffffffffffffff166108fc849081150290604051600060405180830381858888f1935050505015801561412d573d6000803e3d6000fd5b50614185565b6000341115614184573373ffffffffffffffffffffffffffffffffffffffff166108fc349081150290604051600060405180830381858888f19350505050158015614182573d6000803e3d6000fd5b505b5b88600019163373ffffffffffffffffffffffffffffffffffffffff168c7f7d9c5ae9450f4d9b3d354b5ece3224807ad55445b40ed1e53a1dd6d72c7ee6288d8c60058b8154811015156141d457fe5b90600052602060002090600b0201600701548d8d60058e8154811015156141f757fe5b90600052602060002090600b0201600a0160009054906101000a900460ff1660058f81548110151561422557fe5b90600052602060002090600b0201600a0160019054906101000a900460ff16604051808860001916600019168152602001876000191660001916815260200186815260200180602001806020018515151515815260200184151515158152602001838103835287818151815260200191508051906020019080838360005b838110156142be5780820151818401526020810190506142a3565b50505050905090810190601f1680156142eb5780820380516001836020036101000a031916815260200191505b50838103825286818151815260200191508051906020019080838360005b83811015614324578082015181840152602081019050614309565b50505050905090810190601f1680156143515780820380516001836020036101000a031916815260200191505b50995050505050505050505060405180910390a45050505050505050505050565b60015481565b6000816006600082815260200190815260200160002060000160009054906101000a900460ff161515614413576040517f08c379a00000000000000000000000000000000000000000000000000000000081526004018080602001828103825260148152602001807f4f7264657220646f6573206e6f7420657869737400000000000000000000000081525060200191505060405180910390fd5b3373ffffffffffffffffffffffffffffffffffffffff166005600660008481526020019081526020016000206001015481548110151561444f57fe5b90600052602060002090600b020160020160009054906101000a900473ffffffffffffffffffffffffffffffffffffffff1673ffffffffffffffffffffffffffffffffffffffff1614151561450c576040517f08c379a00000000000000000000000000000000000000000000000000000000081526004018080602001828103825260138152602001807f4e6f7420746865206f72646572206f776e65720000000000000000000000000081525060200191505060405180910390fd5b600060149054906101000a900460ff1615151561452857600080fd5b60066000848152602001908152602001600020600101549150600060058381548110151561455257fe5b90600052602060002090600b0201600a0160006101000a81548160ff021916908315150217905550827f1d7a67482beef10febbf18a9408d80c9480b1b2d26ad1a65f47501c3424b0e4060405160405180910390a2505050565b6000809054906101000a900473ffffffffffffffffffffffffffffffffffffffff1673ffffffffffffffffffffffffffffffffffffffff163373ffffffffffffffffffffffffffffffffffffffff1614151561460757600080fd5b6000600360008373ffffffffffffffffffffffffffffffffffffffff1673ffffffffffffffffffffffffffffffffffffffff16815260200190815260200160002060006101000a81548160ff0219169083151502179055508073ffffffffffffffffffffffffffffffffffffffff167fd8713b02ca07a0519b245b1539db87cc9dbad7fb001394459bcbb264c2719d8260405160405180910390a250565b6000816006600082815260200190815260200160002060000160009054906101000a900460ff161515614740576040517f08c379a00000000000000000000000000000000000000000000000000000000081526004018080602001828103825260148152602001807f4f7264657220646f6573206e6f7420657869737400000000000000000000000081525060200191505060405180910390fd5b6006600084815260200190815260200160002060010154915050919050565b6000809054906101000a900473ffffffffffffffffffffffffffffffffffffffff1673ffffffffffffffffffffffffffffffffffffffff163373ffffffffffffffffffffffffffffffffffffffff161415156147ba57600080fd5b6147c381614ff2565b50565b60008282111515156147d457fe5b818303905092915050565b60008060008060006006600087815260200190815260200160002060010154915060058281548110151561480f57fe5b90600052602060002090600b020160070154945060058281548110151561483257fe5b90600052602060002090600b020160020160009054906101000a900473ffffffffffffffffffffffffffffffffffffffff16935060058281548110151561487557fe5b90600052602060002090600b020160050160009054906101000a900473ffffffffffffffffffffffffffffffffffffffff16925060006006600088815260200190815260200160002060000160006101000a81548160ff02191690831515021790555060016005805490501115614b335760056001600580549050038154811015156148fd57fe5b90600052602060002090600b020160058381548110151561491a57fe5b90600052602060002090600b020160008201548160000155600182015481600101906000191690556002820160009054906101000a900473ffffffffffffffffffffffffffffffffffffffff168160020160006101000a81548173ffffffffffffffffffffffffffffffffffffffff021916908373ffffffffffffffffffffffffffffffffffffffff16021790555060038201548160030190600019169055600482015481600401906000191690556005820160009054906101000a900473ffffffffffffffffffffffffffffffffffffffff168160050160006101000a81548173ffffffffffffffffffffffffffffffffffffffff021916908373ffffffffffffffffffffffffffffffffffffffff160217905550600682015481600601906000191690556007820154816007015560088201816008019080546001816001161561010002031660029004614a7192919061520a565b5060098201816009019080546001816001161561010002031660029004614a9992919061520a565b50600a820160009054906101000a900460ff1681600a0160006101000a81548160ff021916908315150217905550600a820160019054906101000a900460ff1681600a0160016101000a81548160ff0219169083151502179055509050508160066000600585815481101515614b0b57fe5b90600052602060002090600b0201600001548152602001908152602001600020600101819055505b6005805480919060019003614b489190615291565b506000600860008673ffffffffffffffffffffffffffffffffffffffff1673ffffffffffffffffffffffffffffffffffffffff168152602001908152602001600020600088815260200190815260200160002060000160006101000a81548160ff0219169083151502179055506001600760008673ffffffffffffffffffffffffffffffffffffffff1673ffffffffffffffffffffffffffffffffffffffff168152602001908152602001600020805490501115614dfb57600860008573ffffffffffffffffffffffffffffffffffffffff1673ffffffffffffffffffffffffffffffffffffffff1681526020019081526020016000206000878152602001908152602001600020600101549050600760008573ffffffffffffffffffffffffffffffffffffffff1673ffffffffffffffffffffffffffffffffffffffff1681526020019081526020016000206001600760008773ffffffffffffffffffffffffffffffffffffffff1673ffffffffffffffffffffffffffffffffffffffff1681526020019081526020016000208054905003815481101515614ce757fe5b9060005260206000200154600760008673ffffffffffffffffffffffffffffffffffffffff1673ffffffffffffffffffffffffffffffffffffffff16815260200190815260200160002082815481101515614d3e57fe5b906000526020600020018190555080600860008673ffffffffffffffffffffffffffffffffffffffff1673ffffffffffffffffffffffffffffffffffffffff1681526020019081526020016000206000600760008873ffffffffffffffffffffffffffffffffffffffff1673ffffffffffffffffffffffffffffffffffffffff16815260200190815260200160002084815481101515614dda57fe5b90600052602060002001548152602001908152602001600020600101819055505b600760008573ffffffffffffffffffffffffffffffffffffffff1673ffffffffffffffffffffffffffffffffffffffff168152602001908152602001600020805480919060019003614e4d91906152c3565b5084848494509450945050509193909250565b600080831415614e735760009050614e92565b8183029050818382811515614e8457fe5b04141515614e8e57fe5b8090505b92915050565b60008183811515614ea557fe5b04905092915050565b60008183019050828110151515614ec157fe5b80905092915050565b600080823b905060008163ffffffff1611915050919050565b6000806006600089815260200190815260200160002060010154905086600582815481101515614f0f57fe5b90600052602060002090600b0201600101816000191690555085600582815481101515614f3857fe5b90600052602060002090600b0201600301816000191690555084600582815481101515614f6157fe5b90600052602060002090600b0201600401816000191690555083600582815481101515614f8a57fe5b90600052602060002090600b02016008019080519060200190614fae9291906152ef565b5082600582815481101515614fbf57fe5b90600052602060002090600b02016009019080519060200190614fe39291906152ef565b50809150509695505050505050565b600073ffffffffffffffffffffffffffffffffffffffff168173ffffffffffffffffffffffffffffffffffffffff161415151561502e57600080fd5b8073ffffffffffffffffffffffffffffffffffffffff166000809054906101000a900473ffffffffffffffffffffffffffffffffffffffff1673ffffffffffffffffffffffffffffffffffffffff167f8be0079c531659141344cd1fd0a4f28419497f9722a3daafe3b4186f6b6457e060405160405180910390a3806000806101000a81548173ffffffffffffffffffffffffffffffffffffffff021916908373ffffffffffffffffffffffffffffffffffffffff16021790555050565b610180604051908101604052806000815260200160008019168152602001600073ffffffffffffffffffffffffffffffffffffffff1681526020016000801916815260200160008019168152602001600073ffffffffffffffffffffffffffffffffffffffff168152602001600080191681526020016000815260200160608152602001606081526020016000151581526020016000151581525090565b828054600181600116156101000203166002900490600052602060002090601f016020900481019282601f106151cb57805160ff19168380011785556151f9565b828001600101855582156151f9579182015b828111156151f85782518255916020019190600101906151dd565b5b509050615206919061536f565b5090565b828054600181600116156101000203166002900490600052602060002090601f016020900481019282601f106152435780548555615280565b8280016001018555821561528057600052602060002091601f016020900482015b8281111561527f578254825591600101919060010190615264565b5b50905061528d919061536f565b5090565b8154818355818111156152be57600b0281600b0283600052602060002091820191016152bd9190615394565b5b505050565b8154818355818111156152ea578183600052602060002091820191016152e9919061536f565b5b505050565b828054600181600116156101000203166002900490600052602060002090601f016020900481019282601f1061533057805160ff191683800117855561535e565b8280016001018555821561535e579182015b8281111561535d578251825591602001919060010190615342565b5b50905061536b919061536f565b5090565b61539191905b8082111561538d576000816000905550600101615375565b5090565b90565b61547691905b808211156154725760008082016000905560018201600090556002820160006101000a81549073ffffffffffffffffffffffffffffffffffffffff0219169055600382016000905560048201600090556005820160006101000a81549073ffffffffffffffffffffffffffffffffffffffff0219169055600682016000905560078201600090556008820160006154319190615479565b6009820160006154419190615479565b600a820160006101000a81549060ff0219169055600a820160016101000a81549060ff021916905550600b0161539a565b5090565b90565b50805460018160011615610100020316600290046000825580601f1061549f57506154be565b601f0160209004906000526020600020908101906154bd919061536f565b5b505600a165627a7a723058208ee56e0df1edf3f5f0d3f83c723b05483936e97af8fb1ccfe8e67504670818ca0029",
  "source": "pragma solidity ^0.4.24;\r\n\r\nimport \"../app/node_modules/openzeppelin-solidity/contracts/lifecycle/Pausable.sol\";\r\nimport \"../app/node_modules/openzeppelin-solidity/contracts/math/SafeMath.sol\";\r\n\r\n/**\r\n * @title Decentralised Labor Exchange\r\n * @author drag0no (Pavel Krot - krotpv@gmail.com)\r\n */\r\ncontract DappWork is Pausable \r\n{\r\n    // Pausable inerhits Ownable\r\n    // Pausable - Circuit breaker template\r\n    // Ownable - For contract administration\r\n\r\n    // SafeMath library prevents overflow arithmetic operations\r\n    using SafeMath for uint;\r\n    \r\n    // Minimum required budget for the new order\r\n    uint public constant minBudget = 0.01 ether;\r\n    // Fee from each completed order which will help me to buy some food\r\n    uint public houseEdge;\r\n    // Current profit (from fees) that is in the contract\r\n    uint public contractProfit;\r\n    \r\n    // Address map of contract moderators (the owner of the CONTRACT is moderator by default)\r\n    mapping(address => bool) public moders;\r\n    \r\n    struct Order {\r\n        // Unique auto increment ID\r\n        uint id;  \r\n        // A small title of the order\r\n        bytes32 title;  \r\n        // Address of the ORDER creator (owner)\r\n        address owner;  \r\n        // Email of the ORDER owner (required for communication with a freelancer)\r\n        bytes32 ownerContactEmail;  \r\n        // Additional contact information\r\n        // Can be a skype or telegram account, for ex. \"skype: username\"\r\n        bytes32 ownerContactAdditional;\r\n        // Freelancer address which needed to be assigned by the ORDER owner\r\n        address freelancer;\r\n        // Freelancer contact email \r\n        // Required for the moderators to resolve possible conflicts\r\n        bytes32 freelancerContactEmail;\r\n        // Funds locked on the contract\r\n        uint budget;\r\n        // IPFS hash of the order text description\r\n        string ipfsTextDescription;\r\n        // IPFS hash of the file with the detailed order information (can be *.zip, *.doc... i.e. any file)\r\n        string ipfsDetailsFile;\r\n        \r\n        // Locks for the double lock system. \r\n        // Funds and order details can't be changed or removed when at leas one lock is up\r\n        // Owner lock can be released by ORDER owner only\r\n        bool ownerLock;\r\n        // Freelancer lock can be released by freelancer only \r\n        bool freelancerLock;\r\n    }\r\n    \r\n    // A helper structure for binding an entity to an array index\r\n    struct OrderIndex {\r\n        bool exists;\r\n        uint index;\r\n    }\r\n    \r\n    // ID of the last created order (used for auto-incrementing)\r\n    uint public lastOrderId;\r\n    // List of the orders\r\n    Order[] public ordersList;\r\n    // Map to find index in the array by order ID\r\n    mapping(uint => OrderIndex) private ordersListIndex;\r\n    // Map to find orders that belong to the specified address\r\n    mapping(address => uint[]) private ordersByOwner;\r\n    // Two-dimensional map to find the order index for the specified address (a little bit complex, but the contract needs it, trust me :)\r\n    mapping(address => mapping(uint => OrderIndex)) private ordersByOwnerIndex;\r\n    \r\n    // Events to track the addresses of current moderators\r\n    event LogModerAdded(address indexed moder);\r\n    event LogModerRemoved(address indexed moder);\r\n\r\n    // Events to track the orders changes for apropriate functions\r\n    // Self-explained names :)\r\n    event LogOrderCreated(uint indexed id, bytes32 title, \r\n                            address indexed owner, bytes32 indexed ownerEmail,\r\n                            uint budget, \r\n                            string ipfsTextDescription, string ipfsDetailsFile);\r\n    event LogOrderModified(uint indexed id, address indexed modifiedBy,\r\n                            bytes32 title, bytes32 indexed ownerEmail, bytes32 ownerAdditionalContact,\r\n                            uint budget, string ipfsTextDescription, string ipfsDetailsFile,\r\n                            bool ownerLock, bool freelancerLock);\r\n    event LogOrderUnlockedByOwner(uint indexed id);\r\n    event LogOrderUnlockedByFreelancer(uint indexed id);\r\n    event LogOrderCompleted(uint indexed id);\r\n    event LogOrderRemoved(uint indexed id, address indexed removedBy);\r\n    event LogOrderFreelancerAdded(uint indexed id, address indexed freelancer, bytes32 indexed freelanerEmail);\r\n    \r\n    /**\r\n    * @dev Requirement the caller is the CONTRACT owner or the moderator\r\n    */\r\n    modifier onlyModers() {\r\n        bool isModer = moders[msg.sender] == true;\r\n        bool isContractOwner = msg.sender == owner;\r\n        require(isModer || isContractOwner, \"Current address is not a moderator\");\r\n        _;\r\n    }\r\n    \r\n    /**\r\n    * @dev Requirement the order exists\r\n    * @param _id The order ID\r\n    */\r\n    modifier orderExists(uint _id) {\r\n        require(ordersListIndex[_id].exists, \"Order does not exist\");\r\n        _;\r\n    }\r\n    \r\n    /**\r\n    * @dev Requirement the order exists and the caller is the ORDER owner\r\n    * @param _id The order ID\r\n    */\r\n    modifier onlyOrderOwner(uint _id) {\r\n        require(ordersListIndex[_id].exists, \"Order does not exist\");\r\n        require(ordersList[ordersListIndex[_id].index].owner == msg.sender, \"Not the order owner\");\r\n        _;\r\n    }\r\n\r\n    /**\r\n    * @dev Requirement the order exists and the caller is the order freelancer\r\n    * @param _id The order ID\r\n    */\r\n    modifier onlyOrderFreelancer(uint _id) {\r\n        require(ordersListIndex[_id].exists, \"Order does not exist\");\r\n        require(ordersList[ordersListIndex[_id].index].freelancer == msg.sender, \"Not the order freelancer\");\r\n        _;\r\n    }\r\n    \r\n    /**\r\n    * @dev Requirement the order is not locked\r\n    * @param _id The order ID\r\n    */\r\n    modifier orderNotLocked(uint _id) {\r\n        require(ordersListIndex[_id].exists, \"Order does not exist\");\r\n        require(ordersList[ordersListIndex[_id].index].ownerLock == false, \"Locked by owner\");\r\n        require(ordersList[ordersListIndex[_id].index].freelancerLock == false, \"Locked by freelancer\");\r\n        _;\r\n    }\r\n    \r\n    /**\r\n    * @notice Setting up the fee (in the percentages) for completed orders while deploying contract\r\n    * @param _houseEdge The amount of fee (in the percentages) will be set for the contract\r\n    */\r\n    constructor(uint _houseEdge) public\r\n    {\r\n        require(_houseEdge >= 0 && _houseEdge < 100, \"House Edge shoud be between 0-100\");\r\n        houseEdge = _houseEdge;\r\n    }\r\n    \r\n    /**\r\n    * @dev Classic fallback function to prevent unnecessary funds transfers\r\n    */\r\n    function() public payable \r\n    {\r\n        revert(\"No plain funds transfer allowed\");\r\n    }\r\n    \r\n    /**\r\n    * @dev Private function to check that the address is the contract. \r\n    * It is needed to prevent creating undeletable orders by other contracts.\r\n    * Because we can't transfer funds back to the order owner if it's the contract.\r\n    * @param _addr The address to be checked\r\n    * @return TRUE is the address is another contract and FALSE if it's not\r\n    */\r\n    function isContract(address _addr) view private returns (bool _isContract)\r\n    {\r\n        uint32 size;\r\n        assembly {\r\n            size := extcodesize(_addr)\r\n        }\r\n        return (size > 0);\r\n    }\r\n\r\n    /**\r\n    * @notice Withdraw accumulated profit from the contract to buy some food. \r\n    * The function is only available for the CONTRACT owner.\r\n    * @param amount The amount in (wei) to be withdrawn\r\n    */\r\n    function withdrawContractProfit(uint amount) public onlyOwner\r\n    {\r\n        require(amount <= contractProfit, \"Not enough funds on contract to withdraw\");\r\n        contractProfit = contractProfit.sub(amount);\r\n        msg.sender.transfer(amount);\r\n    }\r\n\r\n    /**\r\n    * @notice Add new moderator who helps us to maintain contract \r\n    * and resolve conflicts between customers and freelancers. ;)\r\n    * The function is only available for the CONTRACT owner.\r\n    * @param _moder The address of the moderator to be added\r\n    */\r\n    function addModer(address _moder) public onlyOwner\r\n    {\r\n        moders[_moder] = true;\r\n        emit LogModerAdded(_moder);\r\n    }\r\n    \r\n    /**\r\n    * @notice Remove the moderator who was like a brother but betrayed us.\r\n    * The function is only available for the CONTRACT owner.\r\n    * @param _moder The address of the moderator to be removed\r\n    */\r\n    function removeModer(address _moder) public onlyOwner\r\n    {\r\n        moders[_moder] = false;\r\n        emit LogModerRemoved(_moder);\r\n    }\r\n    \r\n    /**\r\n    * @notice Get ther order information by its ID\r\n    * @dev Adding more parameters to returns leads to a \"Stack too deep\" error.\r\n    * That's why I unite ownerLock and freelancerLock to just \"lock\" variable.\r\n    * To get the full information about locks use the chain of functions:\r\n    * { fullData = ordersList.call(getOrderIndex(id)) }\r\n    * @param _id The order ID\r\n    * @return Order data where { lock = ownerLock || freelancerLock }\r\n    */\r\n    function getOrderById(uint _id) public view orderExists(_id) \r\n        returns(bytes32 title,\r\n                address owner,\r\n                bytes32 ownerContactEmail,\r\n                bytes32 ownerContactAdditional,\r\n                address freelancer,\r\n                bytes32 freelancerContactEmail,\r\n                uint budget,\r\n                string ipfsTextDescription,\r\n                string ipfsDetailsFile,\r\n                bool lock)\r\n    {\r\n        uint _index = ordersListIndex[_id].index;\r\n        Order storage order = ordersList[_index];\r\n\r\n        lock =  ordersList[_index].ownerLock || ordersList[_index].freelancerLock;\r\n        \r\n        return (order.title, \r\n                order.owner, order.ownerContactEmail, order.ownerContactAdditional, \r\n                order.freelancer, order.freelancerContactEmail, \r\n                order.budget, \r\n                order.ipfsTextDescription, order.ipfsDetailsFile, \r\n                lock);\r\n    }\r\n\r\n    /**\r\n    * @notice Get the order's index by its ID\r\n    * @dev Use it in chain { fullData = ordersList.call(getOrderIndex(id)) }\r\n    * to get the full order information\r\n    * @param _id The order ID\r\n    * @return Order's index\r\n    */\r\n    function getOrderIndex(uint _id) public view orderExists(_id)\r\n        returns(uint index)\r\n    {\r\n        return ordersListIndex[_id].index;       \r\n    }\r\n        \r\n    /**\r\n    * @notice Get the number of the stored orders\r\n    * @dev Use it in the frontend to iterate over orders\r\n    * @return The number of orders\r\n    */\r\n    function getOrdersCount() public view returns(uint)\r\n    {\r\n        return ordersList.length;\r\n    }\r\n\r\n    /**\r\n    * @notice Create a new order\r\n    * @dev Use the event filtered by the creator address to get this order ID\r\n    * @param _title The short title of the order\r\n    * @param _ownerContactEmail Email of the order creator for communication (REQUIRED)\r\n    * @param _ownerContactAdditional Additional contact information of the order creator\r\n    * @param _ipfsTextDescription IPFS hash of the order's description\r\n    * @param _ipfsDetailsFile IPFS hash of the file with detailed order information\r\n    */\r\n    function createOrder(bytes32 _title, \r\n                         bytes32 _ownerContactEmail, bytes32 _ownerContactAdditional,\r\n                         string _ipfsTextDescription, string _ipfsDetailsFile)\r\n        public payable whenNotPaused\r\n    {\r\n        require(msg.value >= minBudget, \"Minimal budget is not fulfilled\");\r\n        require(!isContract(msg.sender), \"Contracts are not allowed to create orders!\");\r\n        require(_ownerContactEmail[0] != 0, \"E-mail is required\");\r\n\r\n        uint order_id = lastOrderId.add(1);\r\n        lastOrderId = order_id;\r\n\r\n        Order memory order = Order(\r\n            order_id,\r\n            _title,\r\n            msg.sender,\r\n            _ownerContactEmail,\r\n            _ownerContactAdditional,\r\n            address(0),\r\n            \"\",\r\n            msg.value,\r\n            _ipfsTextDescription,\r\n            _ipfsDetailsFile,\r\n            false,\r\n            false\r\n        );\r\n        \r\n        uint _index1 = ordersList.push(order) - 1;\r\n        ordersListIndex[order_id].exists = true;\r\n        ordersListIndex[order_id].index = _index1;\r\n\r\n        uint _index2 = ordersByOwner[msg.sender].push(order_id) - 1;\r\n        ordersByOwnerIndex[msg.sender][order_id].exists = true;\r\n        ordersByOwnerIndex[msg.sender][order_id].index = _index2;\r\n        \r\n        emit LogOrderCreated(order_id, _title,\r\n            msg.sender, _ownerContactEmail,\r\n            msg.value,\r\n            _ipfsTextDescription, _ipfsDetailsFile);\r\n    }\r\n    \r\n    /**\r\n    * @notice Remove the order by its ID. Funds return to the contract owner.\r\n    * @dev Function can be executed only by ORDER owner when the order is not locked\r\n    * @dev For the CONTRACT owner and moders there is another function to remove the order\r\n    * @param _id The order ID\r\n    */\r\n    function removeOrder(uint _id) public onlyOrderOwner(_id) orderNotLocked(_id) whenNotPaused\r\n    {\r\n        (uint budget, ,) = _removeOrder(_id);\r\n        msg.sender.transfer(budget);\r\n        emit LogOrderRemoved(_id, msg.sender);\r\n    }\r\n\r\n    /**\r\n    * @notice Remove the order by its ID.\r\n    * Funds are split between the freelancer and the owner depends on the parameter.\r\n    * @dev Function can be executed only by CONTRACT owner and moders\r\n    * @param _id The order ID\r\n    * @param _percentProportionToOwner The percentage of the budget that will be \r\n    * refunded to the order owner, the rest will go to the freelancer exclude a small fee\r\n    */\r\n    function moderRemoveOrder(uint _id, uint _percentProportionToOwner) public onlyModers orderExists(_id)\r\n    {\r\n        require(_percentProportionToOwner >= 0 && _percentProportionToOwner <= 100, \"Percent proportion should be between 0-100\");\r\n\r\n        (uint budget, address _owner, address _freelancer) = _removeOrder(_id);\r\n        uint to_owner = budget.mul(_percentProportionToOwner).div(100);  // budget * (_percentProportionToOwner / 100)\r\n        \r\n        if (_percentProportionToOwner < 100)\r\n        {\r\n            require(_freelancer != address(0), \"Can't send coins to 0x0 address\");\r\n            uint rest_budget = budget.sub(to_owner);\r\n            uint contract_profit = rest_budget.mul(houseEdge).div(100);\r\n            uint to_freelancer = rest_budget.sub(contract_profit);\r\n            contractProfit = contractProfit.add(contract_profit);\r\n            _freelancer.transfer(to_freelancer);\r\n        }\r\n        \r\n        _owner.transfer(to_owner);\r\n        emit LogOrderRemoved(_id, msg.sender);\r\n    }\r\n    \r\n    /**\r\n    * @dev Private function to remove duplicate code in public remove functions\r\n    * @param _id The order ID\r\n    * @return Amount of the budget, order owner address and freelancer address\r\n    */\r\n    function _removeOrder(uint _id) private returns(uint _budget, address _owner, address _freelancer)\r\n    {\r\n        uint _index = ordersListIndex[_id].index;\r\n        _budget = ordersList[_index].budget;\r\n        _owner = ordersList[_index].owner;\r\n        _freelancer = ordersList[_index].freelancer;\r\n        \r\n        ordersListIndex[_id].exists = false;\r\n        if (ordersList.length > 1) {\r\n            ordersList[_index] = ordersList[ordersList.length - 1];\r\n            ordersListIndex[ordersList[_index].id].index = _index;\r\n        }\r\n        ordersList.length--;\r\n\r\n        ordersByOwnerIndex[_owner][_id].exists = false;\r\n        if (ordersByOwner[_owner].length > 1) {\r\n            uint _index_t = ordersByOwnerIndex[_owner][_id].index;\r\n            ordersByOwner[_owner][_index_t] = ordersByOwner[_owner][ordersByOwner[_owner].length - 1];\r\n            ordersByOwnerIndex[_owner][ordersByOwner[_owner][_index_t]].index = _index_t;\r\n        }\r\n        ordersByOwner[_owner].length--;\r\n\r\n        return (_budget, _owner, _freelancer);\r\n    }\r\n    \r\n    /**\r\n    * @notice Modify the existing order.\r\n    * @dev Function can be executed only by ORDER owner when the order is not locked\r\n    * @dev For the CONTRACT owner and moders there is another function to modify the order\r\n    * @param _id The order ID (it won't change)\r\n    * @param _title New title of the order\r\n    * @param _ownerContactEmail New email of the order creator for communication\r\n    * @param _ownerContactAdditional New additional contact information of the order creator\r\n    * @param _ipfsTextDescription New IPFS hash of the order's description\r\n    * @param _ipfsDetailsFile New IPFS hash of the file with detailed order information\r\n    */\r\n    function modifyOrder(uint _id, bytes32 _title, \r\n            bytes32 _ownerContactEmail, bytes32 _ownerContactAdditional,\r\n            string _ipfsTextDescription, string _ipfsDetailsFile)\r\n        public payable onlyOrderOwner(_id) orderNotLocked(_id) whenNotPaused\r\n    {\r\n        uint _index = _modifyOrder(_id, _title, _ownerContactEmail, _ownerContactAdditional,\r\n            _ipfsTextDescription, _ipfsDetailsFile);\r\n\r\n        if (msg.value > minBudget)\r\n        {\r\n            uint new_budget = msg.value;\r\n            uint old_budget = ordersList[_index].budget;\r\n            ordersList[_index].budget = new_budget;\r\n            msg.sender.transfer(old_budget);\r\n        }\r\n        else if (msg.value > 0)\r\n        {\r\n            msg.sender.transfer(msg.value);\r\n        }\r\n\r\n        emit LogOrderModified(_id, msg.sender,\r\n            _title, _ownerContactEmail, _ownerContactAdditional,\r\n            ordersList[_index].budget, _ipfsTextDescription, _ipfsDetailsFile,\r\n            ordersList[_index].ownerLock, ordersList[_index].freelancerLock);\r\n    }\r\n\r\n    /**\r\n    * @notice Modify the existing order. Helps to solve the conflict between\r\n    * the customer and the freelancer by modifying their locks or order info.\r\n    * @dev Function can be executed only by CONTRACT owner and moders\r\n    * @param _id The order ID (it won't change)\r\n    * @param _title New title of the order\r\n    * @param _ownerContactEmail New email of the order creator for communication\r\n    * @param _ownerContactAdditional New additional contact information of the order creator\r\n    * @param _ipfsTextDescription New IPFS hash of the order's description\r\n    * @param _ipfsDetailsFile New IPFS hash of the file with detailed order information\r\n    * @param _ownerLock Allows moder to remove or set owner's lock\r\n    * @param _freelancerLock Allows moder to remove or set freelancer's lock\r\n    */\r\n    function moderModifyOrder(uint _id, bytes32 _title,\r\n            bytes32 _ownerContactEmail, bytes32 _ownerContactAdditional, \r\n            string _ipfsTextDescription, string _ipfsDetailsFile, \r\n            bool _ownerLock, bool _freelancerLock)\r\n        public onlyModers orderExists(_id)\r\n    {\r\n        uint _index = _modifyOrder(_id, _title, _ownerContactEmail, _ownerContactAdditional,\r\n            _ipfsTextDescription, _ipfsDetailsFile);\r\n\r\n        ordersList[_index].ownerLock = _ownerLock;\r\n        ordersList[_index].freelancerLock = _freelancerLock;\r\n\r\n        emit LogOrderModified(_id, msg.sender,\r\n            _title, _ownerContactEmail, _ownerContactAdditional,\r\n            ordersList[_index].budget, _ipfsTextDescription, _ipfsDetailsFile,\r\n            _ownerLock, _freelancerLock);\r\n    }\r\n\r\n    /**\r\n    * @dev Private function to remove duplicate code in public modify functions\r\n    * @param _id The order ID (it won't change)\r\n    * @param _title New title of the order\r\n    * @param _ownerContactEmail New email of the order creator for communication\r\n    * @param _ownerContactAdditional New additional contact information of the order creator\r\n    * @param _ipfsTextDescription New IPFS hash of the order's description\r\n    * @param _ipfsDetailsFile New IPFS hash of the file with detailed order information\r\n    * @return The order ID\r\n    */\r\n    function _modifyOrder(uint _id, bytes32 _title, \r\n            bytes32 _ownerContactEmail, bytes32 _ownerContactAdditional,\r\n            string _ipfsTextDescription, string _ipfsDetailsFile)\r\n        private returns(uint)\r\n    {\r\n        uint _index = ordersListIndex[_id].index;\r\n        \r\n        ordersList[_index].title = _title;\r\n        ordersList[_index].ownerContactEmail = _ownerContactEmail;\r\n        ordersList[_index].ownerContactAdditional = _ownerContactAdditional;\r\n        ordersList[_index].ipfsTextDescription = _ipfsTextDescription;\r\n        ordersList[_index].ipfsDetailsFile = _ipfsDetailsFile;\r\n        \r\n        return _index;\r\n    }\r\n\r\n    /**\r\n    * @notice Set the freelancer for the order by its ID\r\n    * and lock the order to prevent editing and removing this order.\r\n    * @param _id The order ID\r\n    * @param _freelancer Freelancer's address\r\n    * @param _freelancerContactEmail Freelancer's contact information to help moders to solve conflicts.\r\n    */\r\n    function setOrderFreelancer(uint _id, address _freelancer, bytes32 _freelancerContactEmail) \r\n        public onlyOrderOwner(_id) orderNotLocked(_id) whenNotPaused\r\n    {\r\n        require(_freelancer != address(0), \"Can't add 0x0 address as freelancer\");\r\n        require(_freelancerContactEmail[0] != 0, \"Freelancer e-mail is required\");\r\n\r\n        uint _index = ordersListIndex[_id].index;\r\n\r\n        ordersList[_index].freelancer = _freelancer;\r\n        ordersList[_index].freelancerContactEmail = _freelancerContactEmail;\r\n        ordersList[_index].ownerLock = true;\r\n        ordersList[_index].freelancerLock = true;\r\n        \r\n        emit LogOrderFreelancerAdded(_id, _freelancer, _freelancerContactEmail);\r\n    }\r\n    \r\n    /**\r\n    * @notice Helps the caller to check if he\\she was assigned to the order by its ID\r\n    * @param _id The order ID\r\n    * @return TRUE if assigned and FALSE if not\r\n    */\r\n    function isMyselfApprovedForOrder(uint _id) public view returns(bool)\r\n    {\r\n        return isAddressApprovedForOrder(_id, msg.sender);\r\n    }\r\n    \r\n    /**\r\n    * @notice Helps to check if address was assigned as freelancer to the order by its ID\r\n    * @param _id The order ID\r\n    * @param _freelancer Address to check\r\n    * @return TRUE if assigned and FALSE if not\r\n    */\r\n    function isAddressApprovedForOrder(uint _id, address _freelancer) \r\n        public view orderExists(_id) returns(bool)\r\n    {\r\n        uint _index = ordersListIndex[_id].index;\r\n        // TODO: Think about that freelancer may need only his own lock\r\n        if (_freelancer == ordersList[_index].freelancer\r\n            && ordersList[_index].freelancerLock)\r\n            // && ordersList[_index].ownerLock)\r\n        {\r\n            return true;\r\n        }\r\n        else\r\n        {\r\n            return false;\r\n        }\r\n    }\r\n\r\n    /**\r\n    * @notice Helps to check if freelancer's email added to the order is correct\r\n    * @param _id The order ID\r\n    * @param _freelancerContactEmail Email to check\r\n    * @return TRUE if assigned and FALSE if not\r\n    */\r\n    function isFreelancerEmailCorrectForOrder(uint _id, bytes32 _freelancerContactEmail)\r\n        public view orderExists(_id) returns(bool)\r\n    {\r\n        uint _index = ordersListIndex[_id].index;\r\n        if (_freelancerContactEmail == ordersList[_index].freelancerContactEmail)\r\n        {\r\n            return true;\r\n        }\r\n        else\r\n        {\r\n            return false;\r\n        }    \r\n    }\r\n    \r\n    /**\r\n    * @notice Removes owner's lock from the order. Which means that the order\r\n    * owner wants to cancel working with currently assigned freelancer.\r\n    * @dev Can be executed only by ORDER owner.\r\n    * @param _id The order ID\r\n    */\r\n    function unlockOrderOwner(uint _id) public onlyOrderOwner(_id) whenNotPaused\r\n    {\r\n        uint _index = ordersListIndex[_id].index;\r\n        ordersList[_index].ownerLock = false;\r\n\r\n        emit LogOrderUnlockedByOwner(_id);\r\n    }\r\n    \r\n    /**\r\n    * @notice Removes freelancer's lock from the order. Which means that the\r\n    * freelancer wants to give up to complete this order.\r\n    * @dev Can be executed only by freelancer assigned to the order.\r\n    * @param _id The order ID\r\n    */\r\n    function unlockOrderFreelancer(uint _id) public onlyOrderFreelancer(_id) whenNotPaused\r\n    {\r\n        uint _index = ordersListIndex[_id].index;\r\n        ordersList[_index].freelancerLock = false;\r\n\r\n        emit LogOrderUnlockedByFreelancer(_id);\r\n    }\r\n    \r\n    /**\r\n    * @notice Complete the order. \r\n    * The funds is transferred to the freelancer (exclude the small fee). \r\n    * The order is removed.\r\n    * @dev Can be executed only by ORDER owner.\r\n    * @param _id The order ID\r\n    */\r\n    function completeOrder(uint _id) public onlyOrderOwner(_id) whenNotPaused\r\n    {\r\n        uint _index = ordersListIndex[_id].index;\r\n        bool isLocked = ordersList[_index].freelancerLock || ordersList[_index].ownerLock;\r\n        require(isLocked, \"Order is not locked. You can't complete fully unlocked order\");\r\n        require(_freelancer != ordersList[_index].freelancer, \"Can't send coins to 0x0 address\");\r\n        (uint _budget, , address _freelancer) = _removeOrder(_id);\r\n        uint contract_profit = _budget.mul(houseEdge).div(100); // budget * houseEdge / 100\r\n        uint to_freelancer = _budget.sub(contract_profit);  // budget - contract_profit\r\n        contractProfit = contractProfit.add(contract_profit);\r\n        _freelancer.transfer(to_freelancer);\r\n\r\n        emit LogOrderCompleted(_id);\r\n    }\r\n}\r\n",
  "sourcePath": "C:\\Syncthing-SSD-Rin\\VSCodeProjects\\ConsenSys-Course\\dapp-work\\contracts\\DappWork.sol",
  "compiler": {
    "name": "solc",
    "version": "0.4.24+commit.e67f0147.Emscripten.clang"
  },
  "schemaVersion": "2.0.1",
  "updatedAt": "2018-08-25T11:42:17.568Z"
}